:1000000022C045C044C0A7C4DFC378C41DC449C4CE
:10001000AEC35AC33CC0F2C53AC0BAC538C037C037
:1000200036C035C034C09F09030B00000100080032
:1000300020004000800000010004000001000800D2
:1000400040000001000411241FBECFE5D4E0DEBF54
:10005000CDBF11E0A0E6B0E0EEEFF6E102C0059002
:100060000D92A232B107D9F711E0A2E2B1E001C0CE
:100070001D92A43DB107E1F710E0CAE2D0E003C051
:100080002297FE0138DBC632D107D1F764C7B8CF5B
:100090000F931F93CF93DF938B0160E070E080910B
:1000A00074009091750001D860E070E0809172005A
:1000B00090917300FAD7C0916000D091610008C0A0
:1000C000B80161707070CE01F0D715950795219633
:1000D00080916E0090916F008C179D078CF760E007
:1000E00070E08091700090917100DFD781E090E026
:1000F00026D761E070E08091700090917100D5D7B3
:1001000081E090E01CD760E070E0809170009091F9
:100110007100CBD782E090E012D76AE070E080E017
:1001200090E009D7DF91CF911F910F9108950F9320
:100130001F93CF93DF938C01C0917000D091710019
:1001400005C061E070E0CE011FD721968091740058
:10015000909175008C179D07A4F764E670E080E02D
:1001600090E0E9D660E370E0C80192DF60E470E0FF
:1001700080E090E0E0D660E370E0C80189DF62E3F0
:1001800070E080E090E0D7D660E370E0C80180DFE7
:1001900062E370E080E090E0CED66EE070E0C801EF
:1001A00077DF64E170E080E090E0C5D666E070E063
:1001B000C8016EDF64E170E080E090E0BCD661E0F1
:1001C00070E0C80165DF64E670E080E090E0B3D6DF
:1001D00060E870E0C8015CDF64E170E080E090E01E
:1001E000AAD6DF91CF911F910F9108950895089598
:1001F0000F931F93CF93DF938B0161E070E08091A9
:1002000074009091750051D760E070E080917200A9
:10021000909173004AD7C0916000D091610008C0EE
:10022000B80161707070CE0140D715950795219681
:1002300080916E0090916F008C179D078CF760E0A5
:1002400070E080917000909171002FD781E090E074
:1002500076D661E070E0809170009091710025D7B2
:1002600081E090E06CD660E070E080917000909149
:1002700071001BD761E070E080E090E05CD6DF9118
:10028000CF911F910F910895EF92FF920F931F93BB
:10029000CF93DF937C01EB0100E010E008C0AC0FCE
:1002A000BD1F6C91772767FD7095C701A1DFA02F57
:1002B000BB270F5F1F4FFE0101900020E9F7319728
:1002C000EC1BFD0BAE17BF0750F3DF91CF911F91D1
:1002D0000F91FF90EF90089561E070E0D9DE0895EE
:1002E000FC017183608353834283178216821582D7
:1002F00014820895CF93DF93EC018C819D81892B2B
:1003000011F4E0E017C08E819F81E881F981E80F48
:10031000F91FE08101969F838E836A817B81861716
:10032000970718F095D99F838E838C819D810197C3
:100330009D838C838E2F9927DF91CF910895FC01A7
:100340009B018481958168177907A8F4868197813C
:10035000860F971F9783868362817381861797071D
:1003600018F076D99783868384819581821B930BBD
:10037000958384830895158214820895FC019B015E
:100380008681978162817381820F931F61D9019069
:10039000F081E02DE80FF91F808199270895CF9310
:1003A000DF93EC01462F2C813D816A817B812617EA
:1003B000370718F080E090E011C08E819F81820F96
:1003C000931F46D9E881F981E80FF91F40838C819A
:1003D0009D8101969D838C838FEF90E0DF91CF917B
:1003E0000895FC0140E050E02481358182819381B1
:1003F0002817390710F441E050E0CA010895FC01C4
:10040000158214820895EF92FF920F931F937A0141
:100410008B0145D3C801B7011AD31F910F91FF90EB
:10042000EF90089582D3089556D3FC0184819927D3
:100430000895FF920F931F93CF93DF93F42EC0E0A4
:10044000D0E08B0105C0F80181918F014AD321963C
:100450008F2D9927C817D907B4F3DF91CF911F913A
:100460000F91FF900895039665E070E0F1D888271A
:10047000992724E0660F771F881F991F2A95D1F7C7
:1004800020E030E002C02F5F3F4F26173707D8F338
:100490000895873040F4E82FFF27EE0FFF1FEE5D31
:1004A000FE4F11821082089593B7987F982B93BFC7
:1004B00008951092B4011092B5011092B6011092F5
:1004C000B70108959EB5987F982B9EBD089595B568
:1004D000987F982B95BD08951092BC011092BD0194
:1004E0001092BE011092BF010895E3B7FF27E77095
:1004F000F070EE0FFF1FE65CFF4F85919491089519
:10050000EEB5FF27E770F070EE0FFF1FE65CFF4FC0
:10051000859194910895E5B5FF27E770F070EE0F8F
:10052000FF1FE65DFF4F859194910895873040F459
:10053000E82FFF27EE0FFF1FEE5DFE4F71836083F4
:100540000895DF92EF92FF920F931F937C01D2B632
:100550001092B8011092B9011092BA011092BB0129
:10056000C4DF9C014427552760E074E284EF90E0EB
:10057000A5D8293B8DE8380786E0480780E0580772
:1005800088F481E1E81687E2F80660F4B70188276D
:1005900099273FD828EE33E040E050E06DD879014C
:1005A0008A010EC000271127CA01B90128EE33E0E5
:1005B00040E050E061D8C801B7012BD87B018C0125
:1005C0008091B8019091B901A091BA01B091BB019D
:1005D00022B7BA2FA92F982F8827332744275527CA
:1005E000822B932BA42BB52BA80197012D0D311D28
:1005F000411D511D82179307A407B50708F31F91EA
:100600000F91FF90EF90DF9008956091B401709189
:10061000B5018091B6019091B70108956091BC0138
:100620007091BD018091BE019091BF010895893004
:1006300031F48FB582608FBD8FB58E7F0AC08A304E
:1006400019F48FB5826002C08FB58D7F8FBD8FB5D5
:1006500081608FBD1BBC1ABC19BC18BC08952FB596
:100660002E7F2FBD2FB522602FBD2EB528602EBD49
:100670002EB520612EBD97BD86BD1BBC1ABC19BC12
:1006800018BC08958FB58F778FBD8FB58F7B8FBDC9
:1006900008958FB58F7D8FBD8FB58F7E8FBD0895E7
:1006A0008FB580688FBD8FB58F7B8FBD08958FB557
:1006B00080628FBD8FB58F7E8FBD08959BBD8ABD33
:1006C000089599BD88BD08951F920F920FB60F929D
:1006D00011242F933F934F935F936F937F938F9347
:1006E0009F93AF93BF93EF93FF938091B401909149
:1006F000B501A091B601B091B7010196A11DB11D40
:100700008093B4019093B501A093B601B093B70163
:100710008091B8019091B901A091BA01B091BB014B
:100720000196A11DB11D8093B8019093B901A093CA
:10073000BA01B093BB018091220190912301892BD2
:1007400029F0E0912201F09123010995FF91EF91A9
:10075000BF91AF919F918F917F916F915F914F91D9
:100760003F912F910F900FBE0F901F9018951F92E1
:100770000F920FB60F9211242F933F934F935F93D5
:100780006F937F938F939F93AF93BF93EF93FF9359
:100790008091240190912501892B29F0E091240179
:1007A000F09125010995FF91EF91BF91AF919F9134
:1007B0008F917F916F915F914F913F912F910F900A
:1007C0000FBE0F901F9018951F920F920FB60F92A9
:1007D00011242F933F934F935F936F937F938F9346
:1007E0009F93AF93BF93EF93FF938091BC01909140
:1007F000BD01A091BE01B091BF010196A11DB11D27
:100800008093BC019093BD01A093BE01B093BF0142
:1008100080912C0190912D01892B29F0E0912C01E0
:10082000F0912D010995FF91EF91BF91AF919F91AB
:100830008F917F916F915F914F913F912F910F9089
:100840000FBE0F901F9018951F920F920FB60F9228
:1008500011242F933F934F935F936F937F938F93C5
:100860009F93AF93BF93EF93FF9380912601909155
:100870002701892B29F0E0912601F09127010995A4
:10088000FF91EF91BF91AF919F918F917F916F9168
:100890005F914F913F912F910F900FBE0F901F903E
:1008A00018951F920F920FB60F9211242F933F931A
:1008B0004F935F936F937F938F939F93AF93BF9368
:1008C000EF93FF938091280190912901892B29F0C2
:1008D000E0912801F09129010995FF91EF91BF91D5
:1008E000AF919F918F917F916F915F914F913F91C8
:1008F0002F910F900FBE0F901F9018951F920F927F
:100900000FB60F9211242F933F934F935F936F93E2
:100910007F938F939F93AF93BF93EF93FF938091B8
:100920002A0190912B01892B29F0E0912A01F09165
:100930002B010995FF91EF91BF91AF919F918F91FD
:100940007F916F915F914F913F912F910F900FBECB
:100950000F901F9018951F920F920FB60F921124AF
:100960002F933F934F935F936F937F938F939F93B7
:10097000AF93BF93EF93FF9380912E0190912F013E
:10098000892B29F0E0912E01F0912F010995FF911B
:10099000EF91BF91AF919F918F917F916F915F91F7
:1009A0004F913F912F910F900FBE0F901F90189570
:1009B00083B7887F826083BF12BE89B7816089BF99
:1009C0001092B4011092B5011092B6011092B701C5
:1009D00008958EB5887F83608EBD1DBC1CBC89B711
:1009E000846089BF089585B5887F846085BD14BC07
:1009F00089B7806489BF1092BC011092BD0110922A
:100A0000BE011092BF01089580E090E0E2E2F1E0C3
:100A1000118210823296019687309105C9F7C8DF9E
:100A2000D8DFE1DF789408958FB58D7F8FBD8FB5C6
:100A30008E7F8FBD8FB58F778FBD8FB58F7B8FBD2D
:100A40008FB58F7D8FBD8FB58F7E8FBD0895F3E0FD
:100A5000660F771F881F991FFA95D1F79B01AC018C
:100A6000220F331F441F551F60507C4D8B409F4FFA
:100A700003D62150304029B9232F332720BD0895B4
:100A800040E450E062E771E081EC91E029DC40E471
:100A900050E062E371E08AEC91E022DC0895F0DF3F
:100AA000109231011092300188ED8AB960E875E248
:100AB00080E090E0CCDF8FEF8093C0011092C901FD
:100AC0001092D3011092D20178940895909331013D
:100AD00080933001089581EC91E008958AEC91E0D3
:100AE0000895982F8091C0018823E1F39CB910925A
:100AF000C0010895CF93DF93EC018091C3019091E1
:100B0000C401892B69F08091C5019091C601892BA0
:100B100039F081EC91E0EEDB88838FEF90E002C04A
:100B200080E090E0DF91CF910895CF93DF93CDB730
:100B3000DEB721970FB6F894DEBF0FBECDBFCE0152
:100B40000196D8DF882319F48FEF9FEF02C08981C7
:100B5000992721960FB6F894DEBF0FBECDBFDF9167
:100B6000CF9108951092C6011092C5010895809109
:100B7000C5019091C601892B19F48FEF90E008957B
:100B800080E090E00895682F8AEC91E008DC0895F9
:100B90001F920F920FB60F9211242F933F934F93F2
:100BA0005F936F937F938F939F93AF93BF93EF93D5
:100BB000FF938091C901882369F08091CE019091C3
:100BC000CF01892B29F08AEC91E094DB8CB905C028
:100BD0001092C9018FEF8093C001FF91EF91BF91F7
:100BE000AF919F918F917F916F915F914F913F91C5
:100BF0002F910F900FBE0F901F9018951F920F927C
:100C00000FB60F9211242F933F934F935F936F93DF
:100C10007F938F939F93AF93BF93EF93FF936CB1A9
:100C20008091300190913101892B39F0E0913001B0
:100C3000F0913101862F09950EC081EC91E0AFDB78
:100C4000882349F48091D2019091D3010196909329
:100C5000D3018093D201FF91EF91BF91AF919F910A
:100C60008F917F916F915F914F913F912F910F9055
:100C70000FBE0F901F9018958FEF8093C9018AECDB
:100C800091E038DB982F8091C0018823E1F39CB973
:100C90001092C0010895880F991F880F991FE09145
:100CA000CA00F091CB00E80FF91F8081918108956F
:100CB000880F991F880F991FE091CA00F091CB000F
:100CC000E80FF91F828193810895880F991F880F7B
:100CD000991FE0919000F0919100E80FF91F808139
:100CE00091810895880F991F880F991FE0919000B6
:100CF000F0919100E80FF91F828193810895880F88
:100D0000991F880F991FE0917600F0917700E80F06
:100D1000F91F82819381089585B5806285BD85B56F
:100D20008F7E85BD089585B58F7D85BD85B58F7E08
:100D300085BD089583BD0895EF92FF920F931F9391
:100D40007B018C01ACDEC801B70181DE1F910F91E0
:100D5000FF90EF900895C5DE0895BDDEFC0184810B
:100D600095810895E2DE08950895F5DF08958AE0FB
:100D7000FCDF0895CF93DF93EC0102C02196F5DFED
:100D800088818823D9F7DF91CF9108952F923F92E0
:100D90004F925F926F927F928F929F92AF92BF928B
:100DA000CF92DF92EF92FF920F931F93CF93DF9337
:100DB000CDB7DEB7A0970FB6F894DEBF0FBECDBF9C
:100DC0006B017C0119012A016115710581059105ED
:100DD00019F480E3CADF48C06624772443015E012A
:100DE0000894A11CB11C8501060D171DC701B60191
:100DF000A201910141D4F80160830894611C711C27
:100E0000811C911CC701B601A201910135D4690171
:100E10007A01211531054105510529F7730108941F
:100E2000E108F108EA0CFB1CAA24BB24650110C0F0
:100E3000F70180818A3010F4805D01C0895C95DF04
:100E40000894A108B108C108D1080894E108F10884
:100E500088279927DC0186199709A809B909A816D6
:100E6000B906CA06DB0621F7A0960FB6F894DEBFD6
:100E70000FBECDBFDF91CF911F910F91FF90EF90EB
:100E8000DF90CF90BF90AF909F908F907F906F90AA
:100E90005F904F903F902F900895EF92FF920F93A5
:100EA0001F937B018C0197FF0AC08DE25EDF1095D6
:100EB0000095F094E094E11CF11C011D111D2AE045
:100EC00030E040E050E0C801B70160DF1F910F91B2
:100ED000FF90EF90089520E130E040E050E056DFD1
:100EE000089528E030E040E050E050DF089522E02F
:100EF00030E040E050E04ADF0895EF92FF920F9318
:100F00001F9383DB7B018C01F0DA9C01442755277A
:100F1000C801B7017ED3660F771F881F991F2DE781
:100F200030E040E050E0A8D3CA01B9011F910F9111
:100F3000FF90EF900895DC01CB0103DB089501974A
:100F400049F0880F991F880F991F0297F89401970D
:100F5000F1F778940895CFE5D4E0DEBFCDBF789463
:100F600027DD37DD88E063DB3EDD85B5877F85BD26
:100F700085B5806485BD3F983E9A329A319A309A01
:100F8000379AC5D1CDD1FECFCF93DF93880F991F6C
:100F9000880F991FA091CA00B091CB00A80FB91F6C
:100FA000ED91FC911197309731F1EE0FFF1FED019C
:100FB0004A815B81672B81F4E85EFE4F0190F081EE
:100FC000E02D20A181E090E002C0880F991F4A9592
:100FD000E2F7809528230EC0E85EFE4F0190F08175
:100FE000E02D20A181E090E002C0880F991F4A9572
:100FF000E2F7282B20A3DF91CF910895CF93DF93C1
:10100000880F991F880F991FA091CA00B091CB003B
:10101000A80FB91FED91FC911197EE0FFF1FEC5F28
:10102000FE4F0190F081E02DED018A819B81A1E0CE
:10103000B0E0082E02C0AA0FBB1F0A94E2F720E01E
:1010400030E0672B11F021E030E0B90102C0660FFB
:10105000771F8A95E2F7EF01A09680A199278A234E
:101060009B2386179707C9F720E030E040E050E067
:1010700004C02F5F3F4F4F4F5F4F888199278A23CE
:101080009B2386179707A9F3CA01B90124E130E031
:1010900040E050E0BED227E130E040E050E0ECD24A
:1010A000CA01B901DF91CF9108950F931F93CF9398
:1010B000DF938B01EC01CC0FDD1FCC0FDD1FE09126
:1010C000CA00F091CB00EC0FFD1F80819181892B2C
:1010D00009F45DC0E0919000F0919100EC0FFD1FCC
:1010E00082819381019709F4CDDAE0919000F0912B
:1010F0009100EC0FFD1F82819381029709F4C9DAF8
:10110000E0919000F0919100EC0FFD1F828193819E
:10111000039731F485B58F7D85BD85B58F7E85BDFF
:10112000A091CA00B091CB00012BC9F4AC0FBD1F38
:10113000ED91FC911197EE0FFF1FE25FFE4F0190C2
:10114000F081E02D20A181E090E0ED010A8002C055
:10115000880F991F0A94E2F78095282317C0AC0FD7
:10116000BD1FED91FC911197EE0FFF1FE25FFE4F47
:101170000190F081E02D20A181E090E0ED010A8056
:1011800002C0880F991F0A94E2F7282B20A3DF9151
:10119000CF911F910F910895CF93DF93EC01CC0F66
:1011A000DD1FCC0FDD1FE091CA00F091CB00EC0FEA
:1011B000FD1F80819181892B19F480E090E041C06E
:1011C000E0919000F0919100EC0FFD1F82819381DE
:1011D000019709F457DAE0919000F0919100EC0F3B
:1011E000FD1F82819381029709F453DAE091900008
:1011F000F0919100EC0FFD1F82819381039731F4F0
:1012000085B58F7D85BD85B58F7E85BDA091CA00D2
:10121000B091CB00AC0FBD1FED91FC911197EE0F7B
:10122000FF1FEC5FFE4F0190F081E02D80A1992718
:10123000FD01028002C0959587950A94E2F78170BE
:101240009070DF91CF91089527B1207F880F991F6B
:10125000880F991FE0917600F0917700E80FF91F51
:1012600082818F70282B27B961E070E080E090E0E8
:1012700062DE369A3699FECF24B185B19927982F30
:1012800088273327822B932B0895CF93DF939C01DC
:10129000EB01FC01EE0FFF1FEE0FFF1F809190008E
:1012A00090919100E80FF91F82819381813091051F
:1012B00041F461E070E0C90167DEF2D9CE01FED9E8
:1012C00023C08230910541F461E070E0C9015CDE29
:1012D000EED9CE01F6D918C0039761F461E070E051
:1012E000C90152DE85B5806285BD85B58F7E85BD1D
:1012F000C3BD0AC0603871051CF460E070E002C034
:1013000061E070E0C901D1DEDF91CF91089582EBF9
:1013100091E00DD761E070E08DE090E0C6DE0895C9
:1013200068EE73E080E090E006DE08956F5F7F4F27
:1013300029F4019719F482EB91E059D708956FEFE2
:101340007FEF81E090E0F2DF0895FC01662311F465
:101350001082089581E080830895FC01662311F4D2
:101360001082089581E080830895FC0180814BD82C
:101370000895FC01808158D899270895FC01808147
:1013800051D80895CF93DF93CDB7DEB721970FB62D
:10139000F894DEBF0FBECDBFFC01698341E0BE0102
:1013A0006F5F7F4F808145D821960FB6F894DEBFDE
:1013B0000FBECDBFDF91CF910895FB0101900020BA
:1013C000E9F73197E61BF70B4E2FFC01808131D8EE
:1013D0000895CF93DF93CDB7DEB721970FB6F8947A
:1013E000DEBF0FBECDBFFC01698341E0BE016F5F70
:1013F0007F4F80811ED821960FB6F894DEBF0FBEB6
:10140000CDBFDF91CF9108956F927F928F929F927F
:10141000AF92BF92CF92DF92EF92FF920F931F9302
:10142000CF93DF93CDB7DEB7A0970FB6F894DEBFAA
:101430000FBECDBF3C017A018B01411551056105FD
:10144000710519F460E39EDF37C04E010894811CDA
:10145000911CA22EBB24CC24DD24C801B701A60117
:1014600095010AD1F40161934F01C801B701A601AA
:10147000950102D179018A012115310541055105F6
:1014800061F7CE0101968401081B190B0150104031
:101490007C01E00EF11E0EC0F70160816A3010F48D
:1014A000605D01C0695CC3016DDF015010400894AC
:1014B000E108F10817FFF0CFA0960FB6F894DEBF51
:1014C0000FBECDBFDF91CF911F910F91FF90EF9095
:1014D000DF90CF90BF90AF909F908F907F906F9054
:1014E0000895EF92FF920F931F93CF93DF93EC0138
:1014F0007A018B0177FF0AC06DE244DF10950095F9
:10150000F094E094E11CF11C011D111D2AE0B801CA
:10151000A701CE0179DFDF91CF911F910F91FF904D
:10152000EF900895AB01662757FD6095762FD9DFC0
:1015300008952AE069DF08952115310519F4642F13
:1015400021DF08952A30310511F4CBDF08955CDFE7
:1015500008950F931F938C016DE014DF6AE0C801BA
:1015600011DF1F910F9108950F931F938C010ADFD4
:10157000C801EFDF1F910F9108950F931F938C0106
:10158000FB0101900020E9F73197E61BF70B4E2F86
:10159000FC0180814ED7C801DCDF1F910F910895B7
:1015A0000F931F938C0115DFC801D3DF1F910F919B
:1015B00008950F931F938C0194DFC801CADF1F9118
:1015C0000F910895AB01662757FD6095762FF1DFE7
:1015D00008950F931F938C01ACDFC801BADF1F91F0
:1015E0000F9108950F931F938C01A6DFC801B1DFFF
:1015F0001F910F9108956F5F7F4F21F4019711F4B0
:101600001092B30108956FEF7FEF81E090E0F3DF78
:101610000895629FD001739FF001829FE00DF11D3C
:10162000649FE00DF11D929FF00D839FF00D749F5C
:10163000F00D659FF00D9927729FB00DE11DF91F08
:10164000639FB00DE11DF91FBD01CF011124089565
:10165000AA1BBB1B51E107C0AA1FBB1FA617B707D8
:1016600010F0A61BB70B881F991F5A95A9F78095F4
:101670009095BC01CD010895A1E21A2EAA1BBB1BB7
:10168000FD010DC0AA1FBB1FEE1FFF1FA217B3074E
:10169000E407F50720F0A21BB30BE40BF50B661F64
:1016A000771F881F991F1A9469F760957095809528
:1016B00090959B01AC01BD01CF01089597FB092EC8
:1016C00005260ED057FD04D0D7DF0AD0001C38F411
:1016D00050954095309521953F4F4F4F5F4F08955E
:1016E000F6F790958095709561957F4F8F4F9F4F3E
:0E16F0000895EE0FFF1F0590F491E02D099470
:1016FE0003000400050006000700080009000A00A8
:10170E0002000B000C007800030000000300010033
:10171E0003000200030003000300040003000500A1
:10172E009200000000000000000000000000000019
:10173E00000000000000000000000000000000009B
:10174E000000000000000200010002000200020082
:10175E0003000000000000000000CC0004000000A8
:10176E000400010004000200040003000400040051
:10177E00040005000400060004000700020000003B
:10178E000200010002000200020003000200040039
:10179E0002000500FFFFFFFF160013001000FFFF01
:1017AE00FFFF180015001200FFFFFFFF17001400C7
:0217BE00110018
:00000001FF
